:020000040800F2
:1000000000C000207912000891070008930700083B
:1000100095070008970700089907000800000000EE
:100020000000000000000000000000009B07000826
:100030009D070008000000009F070008A1070008B6
:10004000C1120008C1120008C1120008C112000844
:10005000C1120008C1120008C1120008C112000834
:10006000C1120008C1120008C1120008C112000824
:10007000C1120008A3070008A5070008C112000864
:10008000C1120008C1120008C1120008C112000804
:10009000C1120008C1120008C1120008C1120008F4
:1000A000C1120008C1120008C1120008C1120008E4
:1000B000C1120008C1120008C1120008C1120008D4
:1000C000C1120008C1120008C1120008C1120008C4
:1000D000C1120008C1120008C1120008C1120008B4
:1000E000C1120008C1120008C1120008C1120008A4
:1000F000C1120008C1120008C1120008C112000894
:10010000C1120008C1120008C1120008C112000883
:10011000C1120008C1120008C1120008C112000873
:10012000C1120008C1120008C1120008C112000863
:1001300000000000000000000000000000000000BF
:1001400000000000000000000000000000000000AF
:10015000000000000000000000000000000000009F
:10016000000000000000000000000000000000008F
:10017000000000000000000000000000000000007F
:10018000000000000000000000000000000000006F
:10019000000000000000000000000000000000005F
:1001A000000000000000000000000000000000004F
:1001B000000000000000000000000000000000003F
:1001C000000000000000000000000000000000002F
:1001D000000000000000000000000000000000001F
:0401E0005FF8E0F1F3
:1001E40010B5054C237833B9044B13B10448AFF36D
:1001F40000800123237010BD0400002000000000D3
:100204003813000808B5034B1BB103490348AFF387
:10021400008008BD0000000008000020381300081A
:10022400034613F8012B002AFBD1181A0138704732
:1002340000F00700C0F1070CBCF1040F28BF4FF019
:10024400040C031D062B0CD9C31E4FF0FF3000FA1B
:100254000CFC21EA0C019940984022EA0000084372
:1002640070470023F1E7000030B583B0144B5A699E
:1002740042F001025A615B6903F001030193019B9F
:10028400104DE86800221146C0F30220FFF7D0FFAA
:100294000001C0B20C4C84F80D034FF400532360EA
:1002A400E86800221146C0F30220FFF7C1FF0001F5
:1002B400C0B284F80E034FF48043236003B030BD12
:1002C4000010024000ED00E000E100E02DE9F04301
:1002D4008BB00024059406940794089409942F4B3A
:1002E4009A6942F020029A619A6902F0200204920B
:1002F400049A9A6942F004029A619A6902F004022B
:100304000392039A9A6942F010029A619A6902F080
:1003140010020292029A9A6942F008029A619B6959
:1003240003F008030193019B1D4E4FF4887373611E
:10033400DFF870902023C9F81430DFF86C800125B1
:10034400C8F8145041F21003059306950327079744
:1003540005A9304600F025FA42F2200305930695DC
:100364000797089405A9484600F01BFA40F20113C8
:10037400059306950797089405A9404600F011FADD
:100384000A4B0593069502230793089405A9304662
:1003940000F007FA0BB0BDE8F08300BF0010024084
:1003A4000008014000100140000C0140010001045C
:1003B40010B592B02822002108A800F0B3FF002451
:1003C400039404940594069407942E4B9A6942F47A
:1003D40080529A619A6902F480520292029A9A694E
:1003E40042F004029A619B6903F004030193019BA8
:1003F4004AF2A0030393092304930323059303A957
:10040400214800F0CEF9214B1A6B22F4804222F0ED
:10041400100242F010021A631A6B22F4405242F4A2
:1004240000521A631A6B22F020021A631A6B22F02C
:1004340040021A631A6B42F080021A631A6B22F4A8
:1004440040721A631A6B22F440621A6308944FF4E0
:10045400827309930A940B940C944FF400730D93D4
:1004640010230E930F9410940A231193084C08A997
:10047400204600F021FA636843F00203636012B07F
:1004840010BD00BF001002400008014000000240FF
:100494000030014030B58FB00024079408940994CB
:1004A4000A940B940C940D9402940394049405946C
:1004B4000694344B9A6942F480429A619A6902F430
:1004C40080420192019A9A6942F004029A619B69FE
:1004D40003F004030093009B2B4B02930923039323
:1004E40003230493294D02A9284600F05AF9284B06
:1004F40002930423039302A9284600F052F9254BE2
:100504005A6C22F4804222F0100242F010025A6423
:100514005A6C22F440525A645A6C22F020025A64F3
:100524005A6C22F040025A645A6C42F080025A64B7
:100534005A6C22F440725A645A6C22F440625A642F
:100544004FF4E1330793089409940A940C230B9312
:100554000C940D94104C07A9204600F075FA2369F9
:1005640023F490432361636923F02A036361E368FE
:1005740043F40053E360636943F0800363610FB0A5
:1005840030BD00BF00100240020002040008014018
:1005940004000404000002400038014010B5274A5A
:1005A400136823F0070343F002031360234B1B6813
:1005B40003F00703022BF9D1214A136843F4803373
:1005C40013601F4B1B6813F4003FFAD01C4B1A68CE
:1005D40042F400221A605A6822F47C1242F4E812AF
:1005E4005A601A6842F080721A60154B1B6813F047
:1005F400007FFAD0124B5A6822F0F0025A605A680F
:1006040022F4E06242F480625A605A6822F4605232
:100614005A605A6822F0030242F002025A60084B00
:100624005B6803F00C03082BF9D1064C204600F05C
:10063400DFF9204600F002FA10BD00BF002002409E
:100644000010024000A24A0480B5ADF5016D484B8C
:100654009A6942F001029A619A6902F001020392D6
:10066400039ADA6942F08052DA61DB6903F080535D
:100674000293029B3F4CE26822F4E0621204120CE3
:100684003D4B1343E360E06800220F21C0F30220D6
:10069400FFF7CEFD0301DBB284F82330374B5A68F1
:1006A40022F0E0625A605A6842F080625A60FFF7B2
:1006B40075FFFFF70BFEFFF7D7FDFFF779FEFFF796
:1006C400E9FE00F037FA00F00BFB002000F086FB97
:1006D400002000F093FB2A4800F0B2FD01240094AE
:1006E400102341221E213C2000F0C8FB009410235B
:1006F400244A05210A2000F049FC4FF4FA6000F076
:1007040087F90DF58266204F4FF4806842463946DA
:10071400304600F0F9FD04AD4246B918284600F011
:10072400F3FD01940096402380220021084600F046
:100734002FFD41F2883000F06BF9019400954023BD
:1007440080220021084600F023FD41F2883000F0A9
:100754005FF900F0ABFA00F0EDF94FF4FA7000F035
:1007640057F9012204210B2000F0AAFCF3E700BF93
:100774000010024000ED00E00003FA050000014013
:10078400501B0008601B000850130008FEE7FEE73A
:10079400FEE7FEE7FEE77047704770477047704713
:1007A40070470B68C3F30F2C9CFAACF2B2FA82F2D6
:1007B40076E0A2F108044FF00113A34043F08063F4
:1007C4004C68082C2CD01D0E93FAA3F4B4FA84F4CC
:1007D400A4004FF00F0E0EFA04F4465926EA04045E
:1007E40093FAA3FEBEFA8EFE4FEA8E0E4E6806FA08
:1007F4000EFE44EA0E0444514C68012C1ED0092C10
:100804001CD001323CFA02F347D00123934013EA8F
:100814000C0FF6D0072ACCD840F201139340CFE74F
:100824000D69C6681C0A26EA132694FAA4F4B4FADD
:1008340084F405FA04F43443C460C4E74FEA136E45
:1008440050F80E4093FAA3F5B5FA85F5AD000326EA
:1008540006FA05F524EA050493FAA3F5B5FA85F535
:10086400AD008E6806FA05F5254340F80E50CC68B5
:1008740093FAA3F6B6FA86F6B600042707FA06F644
:1008840025EA060593FAA3F3B3FA83F39B0004FA6B
:1008940003F32B4340F80E30B3E70020F0BD0132E0
:1008A4003CFA02F306D00123934013EA0C0FF6D06E
:1008B400F0B5AFE7002070470246036813F0400F1D
:1008C4002DD110B4006820F47F4020F0BF000B68E5
:1008D4004C6823438C682343CC6823430C6923432B
:1008E4004C6923438C692343CC6923430C6A234317
:1008F40003431360536823F00403C88A034353601B
:100904000B6AB3F5005F06D00020D36923F40063BB
:10091400D36110BC70478B8C13610020F5E7012074
:10092400D36923F40063D36170470000034B5B6811
:10093400C3F30313024AD35CD8407047001002404B
:10094400701B0008034B5B68C3F30223024AD35CA9
:10095400D840704700100240801B0008034B5B68BE
:10096400C3F3C223024AD35CD8407047001002404C
:10097400801B00080B4B5B6803F4803343B90A48BF
:10098400084B5B68C3F38343023303FB00F07047F7
:10099400044B5868C0F34040431C0448B0FBF3F0D8
:1009A400EEE700BF0010024000093D0000127A008B
:1009B40008B5054B5B6803F00C03082B01D0034812
:1009C40008BDFFF7D7FFFBE70010024000127A00D2
:1009D40010B50446FFF7ECFF2060FFF7A7FF606047
:1009E400FFF7B0FFA0606068FFF7B8FFE06010BDDC
:1009F400064BA3FB00239B09013B4FF0E02253610C
:100A04000023936105231361704700BFD34D621027
:100A140082B04FF0E0231B690193019BB0F1FF3FCB
:100A240000D0013038B14FF0E0231B6913F4803F4C
:100A3400F8D00138F6E702B070470000014B1860A7
:100A4400704700BF00000020C36813F4005F01D0AA
:100A54000120704730B585B004460D46C36823F4C1
:100A6400B05323F00C034A68C9680A4329690A434E
:100A74001343C360AB68026922F440521343036119
:100A84006B69426922F44072134343616846FFF77D
:100A94009FFF214B9C420DD0204B9C4210D0204BF9
:100AA4009C420FD01F4B9C420ED01F4B9C420DD03A
:100AB40001202FE0039B63B32A684AB9012029E08F
:100AC400029BF8E7029BF6E7029BF4E7029BF2E73E
:100AD40003EB830303EB83039200B3FBF2F31348AA
:100AE400A0FB032149090A0192B2642505FB1133D5
:100AF4001B013233A0FB0313C3F34F1303F0F001C4
:100B04000A4492B203F00F0313449BB2A360002083
:100B140000E0012005B030BD003801400044004031
:100B240000480040004C0040005000401F85EB513D
:100B34007047000038B5054C4FF4807565614FF47B
:100B4400FA70FFF765FF256138BD00BF000801405A
:100B5400144A136843F040031360F1B1124B20228E
:100B64001A61124B10225A610E4B9B6813F0020F4C
:100B7400FAD00C4B18730B4B9B6813F0800FFAD10F
:100B84000A4B10221A6103F5006320221A61054AF8
:100B9400136823F0400313607047034B20225A610B
:100BA400DFE700BF003001400010014000080140B1
:100BB40038B500250FE005EBC5031A010F4B1344AC
:100BC4000121185DFFF7C4FF0134E4B214F0800F73
:100BD400F1D00135EDB2072D0FD8A5F15000002159
:100BE400C0B2FFF7B5FF00210846FFF7B1FF0021AF
:100BF4001020FFF7ADFF0024E8E738BD20000020F7
:100C040010B500240DE0244B10221A6103F5006393
:100C140020221A61214A136823F04003136001342F
:100C2400E4B2072C37D8A4F150000021C0B2FFF77A
:100C34008FFF00210846FFF78BFF00211020FFF7EC
:100C440087FF174B20221A61A3F5006310225A6113
:100C540003F578431A6B22F001021A6304EBC40211
:100C64001101104A0A44DA630F4A9A635A6B120C50
:100C7400120442F080025A631A6B42F001021A63B2
:100C8400064A136843F040031360044B9B6813F057
:100C9400800FFAD1B7E710BD0008014000300140D1
:100CA40000100140200000200C30014008B5002055
:100CB4000DE000EBC0021101084A0A440021D1549E
:100CC4000133DBB213F0800FF3D00130C0B2072838
:100CD40001D80023F6E7FFF793FF08BD20000020AA
:100CE40038B53D4C01256561C820FFF791FE2561AB
:100CF4000021AE20FFF72CFF00210846FFF728FF54
:100D040000211020FFF724FF00214020FFF720FFDF
:100D140000218120FFF71CFF0021CF20FFF718FFDF
:100D24000021A120FFF714FF0021C820FFF710FFC6
:100D34000021A620FFF70CFF0021A820FFF708FFE1
:100D440000213F20FFF704FF0021D320FFF700FF1D
:100D540000210846FFF7FCFE0021D520FFF7F8FE2E
:100D640000218020FFF7F4FE0021D920FFF7F0FED8
:100D74000021F120FFF7ECFE0021DA20FFF7E8FE66
:100D840000211220FFF7E4FE0021DB20FFF7E0FE44
:100D940000214020FFF7DCFE00212020FFF7D8FED1
:100DA40000210220FFF7D4FE00218D20FFF7D0FEA2
:100DB40000211420FFF7CCFE0021A420FFF7C8FE79
:100DC4000021A620FFF7C4FEFFF770FF0021AF202B
:100DD400FFF7BEFE38BD00BF000C014010B504464D
:100DE40010B1012C05D010BD0021A620FFF7B0FEE4
:100DF400F7E70021A720FFF7ABFEF4E710B50446A0
:100E040010B1012C09D010BD0021C820FFF7A0FEAD
:100E14000021A120FFF79CFEF3E70021C020FFF78B
:100E240097FE0021A020FFF793FEECE710B4CB0857
:100E340001F007014FF0010C0CFA01F1C9B24AB1FB
:100E44000D4A03EBC30402EB0414235C194321543D
:100E540010BC7047084C03EBC30C04EB0C1C1CF8CF
:100E64000020D243D2B20CF8002011430CF8001039
:100E7400C9430CF80010EBE7200000202DE9F04FE7
:100E840085B0039001919A469DF83880082B12D0C2
:100E940013F0070318BF012303EBDA034FEA5A01E7
:100EA40001FB03F3DBB20293203A5FFA82FB039F58
:100EB4004FF000093FE006230293F5E70BEB4B03E9
:100EC4002E4A02EB430313F80960019D002419E044
:100ED4000BEB4B032A4A02EB830313F80960F4E794
:100EE400284B03EB0B1313F80960EEE7B8FA88F20A
:100EF400520929463846FFF799FF76080135EDB2C5
:100F04000134E4B2072C08D816F0010FEED04246A3
:100F140029463846FFF78AFFEFE70137FFB2BAF1F7
:100F2400080F04D0039BFB1AB3EB5A0F1AD009F134
:100F340001095FFA89F9029B994519D2BAF1080FA0
:100F4400BCD0BAF10C0FC3D0BAF1100FC8D0BAF1AB
:100F5400180F0FD10BEBCB030B4A02EB830313F8EF
:100F64000960B2E7019B0833DBB20193039FDEE71C
:100F7400FFF746FE05B0BDE8F08F00BFB01F0008C4
:100F8400D82100084C2600083C2C00082DE9F0412B
:100F940082B004460F4615461E469DF8208002E0A6
:100FA4000634E4B201352A78A2F12000C0B25E28EA
:100FB4000CD8CDF80080334639462046FFF75EFF53
:100FC400082EEDD004EB5604E4B2EBE702B0BDE822
:100FD400F08100002DE9F04F85B002900191934615
:100FE4009A469DF8388013F0070318BF012303EBDA
:100FF400DA0303FB0AF3039307464FF0000936E0D4
:101004002B4B03EB4B1313F80960019D002419E0EB
:101014000BEBCB03274A02EBC30313F80960F4E795
:10102400254B03EBCB1313F80960EEE7B8FA88F20B
:10103400520929463846FFF7F9FE76080135EDB224
:101044000134E4B2072C08D816F0010FEED0424662
:1010540029463846FFF7EAFEEFE70137FFB2029B65
:10106400FB1A534518D009F101091FFA89F9039BAA
:10107400994517D2BAF1100FC2D0BAF1180FC7D0E0
:10108400BAF1200FCCD0BAF1400F0DD10B4B03EBCA
:101094004B2313F80960B8E7019B0833DBB20193D3
:1010A400029FE0E7FFF784FD05B0BDE8F08F00BFC5
:1010B400881B0008E81C0008301D0008B01D00084B
:1010C4002DE9F04182B080460F461646002425469D
:1010D40051E0009610232A4618218020FFF77AFF5A
:1010E4000135EDB249E00CF1FF31284A03EBC300AE
:1010F40002EB001010F80C0003EBC30E02EB0E120F
:1011040050540133DBB2072BEDD90CF1010C5FFA1B
:101114008CFCBCF18F0F01D80023F4E7FFF770FDBE
:101124000135EDB2B5EB071F04DA4FF0010CF0E71F
:101134000025F7E7002522E0002424E00CF1010C4F
:101144005FFA8CFCBCF18F0F13D80023072BF5D862
:101154000CF1FF310D4A03EBC30002EB001010F851
:101164000C0003EBC30E02EB0E1250540133DBB23E
:10117400ECE7FFF745FD002CABD04545D8D0013452
:10118400E4B2102CD8D04FF0010CDBE72000002093
:101194002DE9F04F85B001900D4693469DF83C80B3
:1011A40013F0070218BF012202EBD303039300914B
:1011B4000746002302939A4636E0B8FA88F25209A9
:1011C40029463846FFF732FE76080135EDB2013480
:1011D400E4B2072C08D816F0010FEED04246294697
:1011E4003846FFF723FEEFE70137FFB2019BFB1AF6
:1011F4005B450FD009F101095FFA89F9009DD945D2
:101204000ED20E9B13F80A600AF1010A1FFA8AFA39
:101214000024DEE7009B0833DBB20093019FE9E77B
:10122400029B0133DBB20293029B039A934202D2E4
:101234004FF00009E3E7FFF7E3FC05B0BDE8F08FEA
:1012440010B50A4C626C22F0010262642065084BFE
:10125400E364FEF7E5FFA36C1B0C1B040343A364C8
:10126400636C43F00103636410BD00BF00000240DF
:10127400043801400C480D490D4A002302E0D458BB
:10128400C4500433C4188C42F9D30A4A0A4C0023CC
:1012940001E013600432A242FBD3FFF749FC00F0E3
:1012A4000FF8FFF7D1F97047000000200400002078
:1012B400A039000804000020A0040020FEE700007C
:1012C40070B500260C4D0D4C641BA410A64209D128
:1012D40000F030F800260A4D0A4C641BA410A64204
:1012E40005D170BD55F8043B98470136EEE755F833
:1012F400043B98470136F2E798390008983900080A
:10130400983900089C3900080A44914200F1FF33DF
:1013140000D1704710B511F8014B914203F8014F09
:10132400F9D110BD03460244934200D1704703F83B
:10133400011BF9E7F8B500BFF8BC08BC9E4670472E
:0C134400F8B500BFF8BC08BC9E4670471E
:101350000003050911FF118905C300E000F000F842
:10136000000000000000004428FF11AA4400000013
:10137000000000000000000000000000000000006D
:10138000000000000000000000000000000000005D
:10139000000000000000000000000000000000004D
:1013A0000000000000000000000083013844829229
:1013B00092740183000000000000007C44FF017D66
:1013C0007D7D017D7D7D7D017D7D7D7D7D01FF00BC
:1013D0000000000000010001000100010001000107
:1013E00000000000000000000001010000000000FB
:1013F00000000000000000000000000000000000ED
:1014000000000000000000000000000000000000DC
:1014100000000000000000000000000000000000CC
:1014200000000000000000000000010100000000BA
:1014300000000101000000000000000000010101A7
:10144000010101010101010101010101010101008D
:10145000000000000000000000000000000000008C
:101460000000000000000000000000003F3F0303F8
:10147000F31311111111111101F111618101010118
:10148000816111F1010101014141F10101010101FC
:10149000C1211111111121C1010101014141F101CC
:1014A0000101010101010101011111111111D333D8
:1014B00003033F3F000000000000000000000000A8
:1014C000000000000000000000000000000000001C
:1014D000000000000000000000000000000000000C
:1014E000000000000000000000000000E0E000003C
:1014F0007F01010101010100007F000001061806C3
:101500000100007F0000000040407F4040000000DC
:101510001F2040404040201F0000000040407F400E
:101520004000000000600000000040300C0300009C
:101530000000E0E0000000000000000000000000EB
:10154000000000000000000000000000000000009B
:10155000000000000000000000000000000000008B
:101560000000000000000000000000000707060661
:101570000606040404844444448404048444444427
:101580008404040484C4040404048444444484049B
:10159000040404048444444484040404040484448B
:1015A0004444840404844444448404040404060637
:1015B0000606070700000000000000000000000011
:1015C000000000000000000000000000000000001B
:1015D000000000000000000000000000000000000B
:1015E00000000000000000000000000000000000FB
:1015F0000000000000101814121100000F1010104D
:101600000F000000101F10000000081012120D0043
:10161000001800000D1212120D0000180000101822
:101620001412110000101814121100000000000024
:1016300000000000000000000000000000000000AA
:10164000000000000000000000000000000000009A
:10165000000000000000000000000000000000008A
:10166000000000000000000000000000000000007A
:10167000000000000000000000000000000000006A
:10168000000000000000000000000000808080805A
:10169000808080800000000000000000000000004A
:1016A000000000000000000000000000000000003A
:1016B000000000000000000000000000000000002A
:1016C000000000000000000000000000000000001A
:1016D000007F030C300C037F000038545458000086
:1016E0007C04047800003C40407C000000000000C6
:1016F00000000000000000000000000000000000EA
:10170000000000000000000000000000FFAAAAAADC
:10171000280800FF0000000000000000000000009A
:1017200000000000000000000000000000000000B9
:101730000000000000000000007F030C300C037F5D
:101740000000264949493200007F020408107F004A
:101750000003050911FF118905C300E000F000F83E
:10176000000000000000004428FF11AA440000000F
:101770000000000000000000000000000000000069
:101780000000000000000000000000000000000059
:101790000000000000000000000000000000000049
:1017A0000000000000000000000083013844829225
:1017B00092740183000000000000007C44FF017D62
:1017C0007D7D7D017D7D7D7D017D7D7D7D01FF00B8
:1017D0000000000000010001000100010001000103
:1017E00000000000000000000001010000000000F7
:1017F00000000000000000000000000000000000E9
:1018000000000000000000000000000000000000D8
:1018100000000000000000000000000000000000C8
:1018200000000000000000000000010100000000B6
:1018300000000101000000000000000000010101A3
:101840000101010101010101010101010101010089
:101850000000000000000000000000000000000088
:10186000000000000000000000000000000000F880
:101870000808080808080800F818608000000080C0
:101880006018F80000002020F8000000000000E0D0
:10189000100808080810E00000002020F8000000F0
:1018A0000000000000000000000808080808886820
:1018B0001800000000000000000000000000000010
:1018C0000000000000000000000000000000000018
:1018D0000000000000000000000000000000000008
:1018E0000000000000000000000000000000007F79
:1018F00001010101010100007F000001061806013D
:1019000000007F00000040407F4040000000001FBA
:101910002040404040201F00000040407F404000E9
:1019200000000000600000000000006018060100D8
:1019300000000000000000000000000000000000A7
:101940000000000000000000000000000000000097
:101950000000000000000000000000000000000087
:101960000000000000000000000000000000000077
:10197000000000000040202020C00000E0202020C7
:10198000E000000040E00000000060202020E000B7
:1019900000000000E0202020E000000000004020C7
:1019A0002020C0000040202020C0000000000000D7
:1019B0000000000000000000000000000000000027
:1019C0000000000000000000000000000000000017
:1019D0000000000000000000000000000000000007
:1019E00000000000000000000000000000000000F7
:1019F00000000000000C0A0A090C00000F0808088B
:101A00000F000000080F080000000C0809090E0074
:101A1000000C00000F0909090F00000C00000C0A5F
:101A20000A090C00000C0A0A090C00000000000062
:101A300000000000000000000000000000000000A6
:101A40000000000000000000000000000000000096
:101A50000000000000000000000000000000000086
:101A60000000000000000000000000000000000076
:101A70000000000000000000000000000000000066
:101A80000000000000000000000000008080808056
:101A90008080808000000000000000000000000046
:101AA0000000000000000000000000000000000036
:101AB0000000000000000000000000000000000026
:101AC0000000000000000000000000000000000016
:101AD000007F030C300C037F000038545458000082
:101AE0007C04047800003C40407C000000000000C2
:101AF00000000000000000000000000000000000E6
:101B0000000000000000000000000000FFAAAAAAD8
:101B1000280800FF00000000000000000000000096
:101B200000000000000000000000000000000000B5
:101B30000000000000000000007F030C300C037F59
:101B40000000264949493200007F020408107F0046
:101B500048656C6C6F20576F726C64210D0A000031
:101B600048656C6C6F20576F726C64210000000038
:101B7000000000000000000001020304060708093D
:101B800000000000010203040000F010101010FF1C
:101B900010101010F000000000000F04040404FFF7
:101BA000040404040F0000004040405F5555557583
:101BB0005555555F404040000040200F0949897944
:101BC0000909090F2040000000FE02424ACA4A4AA1
:101BD000CA4A4A4202FE000000FF40504C434040C7
:101BE0004F50505C40FF00000000F888888888FF54
:101BF00088888888F800000000001F080808087F0F
:101C0000888888889F80F00080828282828282E237
:101C1000A2928A8682808000000000000040807FBF
:101C20000000000000000000101010FF1090088855
:101C30008888FF88888808000444827F018080406B
:101C4000432C1028468180000010101010D030FF67
:101C500030D0121C1010000010080402010000FF18
:101C6000000001020408100004040484E43C27245A
:101C7000242424E40404040004020100FF090909E7
:101C80000949897F0000000000FE225A8600FE926A
:101C900092929292FE00000000FF04080700FF40AD
:101CA00020030C14224140000080402018068000D0
:101CB0000718204080000000010020702826212005
:101CC000202438600001010000101292929292923A
:101CD00092121202FE0000000000003F10101010CF
:101CE0003F0040807F000000000000C080808080B6
:101CF000808080FC84808080808080C0C000000064
:101D0000000000FF7F404040404040FF40404040D6
:101D1000404040FF7F000000000000000000000085
:101D20000000007F700000000000000000000000C4
:101D3000000000000000000000000000000000FCA7
:101D4000F80000000000000000000000000000009B
:101D500000000000FFFE020202020202020202FF75
:101D6000FF020202020202020202FF030000000060
:101D7000000000001F1F040404040404040404FF02
:101D8000FF0404040404040404041F000000000011
:101D90000000000000000000000000000000007FC4
:101DA0003F000000000000000000000000000000F4
:101DB0000000000000000000000000000000000023
:101DC00000000000000000000000000000F8F8F033
:101DD000F070200000000000000000000000000083
:101DE00000000000000000000000000000000000F3
:101DF0000000000000000000800000000000000063
:101E000000000000000000000000000000FFFFFFD5
:101E1000FF000000000000000000000000000000C3
:101E200000000000808000000000000000000000B2
:101E3000000000000000000000FFFFFE060606068E
:101E400006060606060606060606060606FFFFFF47
:101E5000FF06060606060606060606060606060629
:101E6000060606FFFFFFFF0702000000000000005B
:101E7000000000000000000000FFFFFF0000000065
:101E800000000000000000000000000000FFFFFF55
:101E9000FF00000000000000000000000000000043
:101EA000000000FFFFFFFF00000000000000000036
:101EB000000000000000000000FFFFFF18181818C5
:101EC00018181818181818181818181818FFFFFFDD
:101ED000FF1818181818181818181818181818189B
:101EE000181818FFFFFFFF000000000000000000AE
:101EF00000000000000000000201010000000000DE
:101F000000000000000000000000000000FFFFFFD4
:101F1000FF000000000000000000000000000000C2
:101F200000000001010000000000000000000000AF
:101F300000000000000000000000000000000000A1
:101F400000000000000000000000000000FFFFFF94
:101F5000FF00000000000000000000000000000082
:101F60000000000000000000000000000000000071
:101F70000000000000000000000000000000000061
:101F8000000000000000000000000000001F1F0F04
:101F90000F00000000000000000000000000000032
:101FA0000000000000000000000000000000000031
:101FB0000000000000000000002F000000000700EB
:101FC000070000147F147F1400242A7F2A12006265
:101FD0006408132300364955225000000503000011
:101FE00000001C224100000041221C000014083E99
:101FF00008140008083E0808000000A0600000085F
:1020000008080808000060600000002010080402B2
:10201000003E5149453E0000427F40000042615170
:102020004946002141454B31001814127F1000270A
:1020300045454539003C4A494930000171090503CD
:1020400000364949493600064949291E00003636FE
:102050000000000056360000000814224100001461
:10206000141414140000412214080002015109063E
:1020700000324959513E007C1211127C007F4949BF
:102080004936003E41414122007F4141221C007FF0
:1020900049494941007F09090901003E4149497AFE
:1020A000007F0808087F0000417F41000020404178
:1020B0003F01007F08142241007F40404040007FE4
:1020C000020C027F007F0408107F003E4141413E28
:1020D000007F09090906003E4151215E007F091970
:1020E00029460046494949310001017F0101003F6D
:1020F0004040403F001F2040201F003F4038403FED
:102100000063140814630007087008070061514950
:10211000454300007F41410000552A552A550000E3
:1021200041417F0000040201020400404040404061
:10213000000001020400002054545478007F4844F9
:10214000443800384444442000384444487F003830
:102150005454541800087E0901020018A4A4A47C59
:10216000007F080404780000447D40000040808423
:102170007D00007F102844000000417F4000007C6B
:1021800004180478007C0804047800384444443877
:1021900000FC242424180018242418FC007C0804C3
:1021A000040800485454542000043F444020003C9C
:1021B0004040207C001C2040201C003C4030403C23
:1021C000004428102844001CA0A0A07C00446454B3
:1021D0004C441414141414140000000000000000F7
:1021E000000000000000FC000000000002000000F1
:1021F000000C020C020000000000000090D0BCD0D7
:10220000BC900003000300001824FE448C0003026D
:10221000070201001824D8B04C800003000102011D
:10222000C038E438E00001020201020208060000A2
:102230000000000000000000000000F804020000A0
:1022400000010204000204F8000000040201000082
:102250009060F86090000000010000002020FC2049
:10226000200000000100000000000000000008063F
:1022700000000000202020202000000000000000BE
:102280000000000000000002000000000080601C50
:102290000200040300000000F8040404F800010236
:1022A000020201000008FC0000000002030200001E
:1022B00018844424180003020202020008042424A3
:1022C000D80001020202010040B088FC800000003A
:1022D000000302003C242424C40001020202010085
:1022E000F824242CC0000102020201000C04E41CAA
:1022F0000400000003000000D8242424D8000102B8
:102300000202010038444444F800000302020100C4
:10231000000010000000000002000000000020008B
:1023200000000000060000000020508804020000A9
:1023300000000102909090909000000000000000CA
:102340000002048850200002010000001804C42488
:102350001800000002000000F804E494F8000102F4
:102360000202020000E09CF0800002030000030271
:1023700004FC2424D800020302020100F80404042F
:102380000C0001020202010004FC0404F800020334
:102390000202010004FC24740C0002030202030088
:1023A00004FC24740C00020302000000F008044442
:1023B000CC4000010202010004FC2020FC040203C6
:1023C000000003020404FC040400020203020200F1
:1023D000000404FC040406040403000004FC24D0EC
:1023E0000C0402030200030204FC040000000203C8
:1023F00002020203FC3CC03CFC000300030003009B
:1024000004FC30C4FC04020302000300F8040404CA
:10241000F80001020202010004FC24241800020357
:1024200002000000F8848404F8000102020705009D
:1024300004FC2464980002030200030218242444CC
:102440008C000302020201000C04FC040C000002D8
:102450000302000004FC0000FC0400010202010071
:10246000047C80E01C040000030000001CE03CE051
:102470001C00000300030000049C609C0400020395
:1024800000030200041CE01C040000020302000020
:102490000C84641C04000203020203000000FE021C
:1024A0000200000007040400000E30C0000000001D
:1024B00000010200000202FE000000040407000008
:1024C0000004020400000000000000000000000002
:1024D00000000808080808080000020000000000CA
:1024E000000000000040A0A0C000000102020302A2
:1024F00004FC2020C00000030202010000C02020D4
:10250000600000010202020000C02024FC00000163
:102510000202030200C0A0A0C000000102020200EB
:102520000020F82424040002030202000040A0A0BE
:10253000602000070A0A0A0404FC2020C0000203ED
:10254000020003020020E400000000020302000079
:10255000000020E4000008080807000004FC80E0F8
:1025600020200203020003020404FC000000020217
:1025700003020200E020E020C0000300030003008B
:1025800020E02020C00002030200030200C020203F
:10259000C00000010202010020E02020C000080F5E
:1025A0000A02010000C02020E0000001020A0F081A
:1025B00020E0402020000203020000000060A0A0F4
:1025C00020000002020203000020F82000000000AA
:1025D0000102020020E00020E000000102020302EC
:1025E00020E0208060200000030100006080E08087
:1025F00060000003000300002060806020000203F0
:102600000003020020E0208060200808070100008D
:102610000020A0602000000203020200000020DE73
:102620000200000000070400000000FF000000009E
:10263000000F00000002DE20000000040700000080
:10264000020102040402000000000000000000007B
:10265000000000000000000000000000000000F882
:1026600000000000000000333000000000100C06E5
:10267000100C0600000000000000000040C0784080
:10268000C0784000043F04043F040400007088FC4C
:1026900008300000001820FF211E0000F008F000A4
:1026A000E018000000211C031E211E0000F0088815
:1026B000700000001E2123241927211010160E007F
:1026C000000000000000000000000000000000E02A
:1026D000180402000000000718204000000204183F
:1026E000E00000000040201807000000404080F09B
:1026F000804040000202010F01020200000000F0D1
:10270000000000000101011F0101010000000000A4
:102710000000000080B07000000000000000000019
:1027200000000000000101010101010100000000A2
:102730000000000000303000000000000000000039
:1027400080601804006018060100000000E0100816
:102750000810E000000F102020100F00001010F8EB
:10276000000000000020203F20200000007008082A
:1027700008887000003028242221300000300888AA
:10278000884830000018202020110E000000C020D2
:1027900010F8000000070424243F240000F80888F3
:1027A000880808000019212020110E0000E0108880
:1027B00088180000000F112020110E0000380808B2
:1027C000C83808000000003F0000000000708808C2
:1027D00008887000001C222121221C0000E0100843
:1027E0000810E0000000312222110F00000000C09C
:1027F000C000000000000030300000000000008039
:102800000000000000008060000000000000804028
:102810002010080000010204081020004040404041
:102820004040400004040404040404000008102094
:1028300040800000002010080402010000704808D9
:102840000808F0000000003036010000C030C82841
:10285000E810E0000718272423140B000000C038FC
:10286000E0000000203C23020227382008F8888876
:1028700088700000203F202020110E00C030080882
:1028800008083800071820202010080008F8080859
:102890000810E000203F202020100F0008F8888852
:1028A000E8081000203F20202320180008F888881E
:1028B000E8081000203F200003000000C030080896
:1028C0000838000007182020221E020008F808001F
:1028D0000008F808203F210101213F20000808F8E6
:1028E000080800000020203F202000000000080809
:1028F000F8080800C08080807F00000008F888C0C9
:1029000028180800203F20012638200008F8080079
:1029100000000000203F20202020300008F8F800B0
:10292000F8F80800203F003F003F200008F830C0C2
:102930000008F808203F200007183F00E0100808B2
:102940000810E0000F10202020100F0008F80808E1
:102950000808F000203F210101010000E0100808F4
:102960000810E0000F18242438504F0008F8888819
:1029700088887000203F2000030C302000708808F9
:10298000080838000038202121221C00180808F807
:10299000080818000000203F2000000008F8080088
:1029A0000008F808001F202020201F000878880059
:1029B00000C83808000007380E010000F80800F8C9
:1029C0000008F800033C0700073C03000818688073
:1029D0008068180820302C03032C30200838C800E9
:1029E000C83808000000203F200000001008080838
:1029F000C83808002038262120201800000000FEDA
:102A0000020202000000007F40404000000C30C085
:102A100000000000000000010638C00000020202B1
:102A2000FE000000004040407F0000000000040263
:102A3000020204000000000000000000000000008E
:102A4000000000008080808080808080000202047E
:102A50000000000000000000000000000000808076
:102A6000808000000019242222223F2008F80080E4
:102A700080000000003F112020110E0000000080A7
:102A800080800000000E1120202011000000008036
:102A90008088F800000E112020103F200000808068
:102AA00080800000001F222222221300008080F07C
:102AB000888888180020203F2020000000008080A7
:102AC00080808000006B94949493600008F80080EC
:102AD00080800000203F210000203F200080989847
:102AE000000000000020203F2020000000000080A7
:102AF0009898000000C08080807F000008F80000E7
:102B000080808000203F24022D302000000808F83B
:102B1000000000000020203F2020000080808080F6
:102B200080808000203F20003F20003F8080008088
:102B300080800000203F210000203F200000808096
:102B400080800000001F202020201F008080008047
:102B50008000000080FFA12020110E0000000080F6
:102B600080808000000E112020A0FF8080808000E7
:102B70008080800020203F21200001000000808014
:102B8000808080000033242424241900008080E009
:102B9000808000000000001F2020000080800000D6
:102BA00000808000001F202020103F2080808000B7
:102BB0000080808000010E300806010080800080C7
:102BC000008080800F300C030C300F0000808000EC
:102BD000808080000020312E0E3120008080800017
:102BE0000080808080818E701806010000808080C7
:102BF000808080000021302C222130000000000065
:102C0000807C020200000000003F40400000000005
:102C1000FF00000000000000FF0000000002027C36
:102C2000800000000040403F00000000000601015D
:102C30000202040400000000000000000000000088
:102C40000000000000000000000000000000000084
:102C50000000000000000000000000000000000074
:102C60000000000000F0F0F0000000000000000094
:102C700000017F010000000000000000001C1C1C7F
:102C80000000000000008060301C8C60301C0C00D4
:102C90000000000000000000000000000000000034
:102CA0000000000000000000000000E00000000044
:102CB00000E000000086E69F86868686E69F860006
:102CC00000011F01010101011F010100000080C07E
:102CD0006020F820E0C00000000003070C18FF701F
:102CE000E18100000000070F10107F100F070000A7
:102CF0008060206080000000E02000000F30203065
:102D00009F70DC371030C0000000100E0300071861
:102D1000101807000000C02020E0C00000000000E4
:102D200080E01F38E88703C43C040000070F181038
:102D3000100B070D1010080000808C4C38000000AC
:102D40000000000000000000000000000000000083
:102D50000000000000000000000000000000000073
:102D6000000080E0300804000000000000FEFF01C9
:102D700000000000000000000000030F18204000C9
:102D800000040830E08000000000000000000000A7
:102D900001FFFE0000000000004020180F030000AB
:102DA00000000000000000000000C0000000000063
:102DB000004266663C18FF183C6666420000000050
:102DC0000000030000000000000000000000800080
:102DD00000000000001010101010FF101010101054
:102DE00000000000000003000000000000000000E0
:102DF00000000000000000000000000000000000D3
:102E00000000000000808C4C380000000000000032
:102E10000000000000000000000000000010101082
:102E20001010101010101000000000000000000032
:102E30000000000000000000000000000000000092
:102E400000000000000000000000000000001C1C4A
:102E50001C00000000000000000000000000000056
:102E6000E0380C000000000080701C03000000002F
:102E70000060380E0100000000000000000080C06B
:102E800060202060C080000000FEFF010000000004
:102E900001FFFE000001070E181010180E070100B8
:102EA0000000808080C0E000000000000000000002
:102EB00000FFFF000000000000001010101F1F1096
:102EC000101000000080402020202060C080000002
:102ED00000030300804020381F070000001C1A195F
:102EE00018181818181F00000080C020202060C08B
:102EF00080000000000303001010182FE78000007E
:102F000000070F10101010180F070000000000003D
:102F10000000C0E0F000000000C0B088868180FFA3
:102F2000FF808000000000000010101F1F10100024
:102F30000000E060606060606060000000003F10C2
:102F400008080818F0E0000000070B101010101C13
:102F50000F030000000080C040202020E0C00000DF
:102F600000FCFF211008080818F0E0000001070C21
:102F700018101010080F03000000C0E060606060CF
:102F800060E06000000003000000E018070000009F
:102F900000000000001F1F00000000000080C06053
:102FA0002020202060C080000087EF2C18183030CF
:102FB00068CF830000070F0810101010180F0700CB
:102FC0000000C0C020202020C0800000001F3F6003
:102FD0004040402010FFFE0000000C1C10101008A4
:102FE0000F030000000000000000000000000000CF
:102FF00000000000000E0E0E0000000000000000A7
:10300000001C1C1C0000000000000000000000006C
:103010000000000000000000000C0C000000000098
:103020000000000000583800000000000000000010
:1030300000000080402010000000102844820100A1
:103040000000000000000000000001020408100061
:1030500000000000000000000000000000848484E4
:1030600084848484848484000000000000000000C4
:103070000000000000001020408000000000000060
:103080000000000000000182442810000000100829
:10309000040201000000000000C0202010101010E9
:1030A00030E0C0000003030000F010080C0703002C
:1030B000000000001C1C1C0000000000000000C0FC
:1030C000406020202040C00000FCFF01F00E03C142
:1030D000FE03807F0001070E081111101109040280
:1030E0000000000080E0E000000000000000807CA4
:1030F0004340477FF880000010181F1000000000B8
:10310000131F1C1020E0E02020202060C080000061
:1031100000FFFF10101010182FE78000101F1F1065
:1031200010101010180F0700000080C04020202051
:103130002060E00000FCFF01000000000000010032
:103140000001070E181010100804030020E0E02012
:1031500020202040C080000000FFFF000000000091
:1031600001FFFE00101F1F10101018080E070100AD
:1031700020E0E020202020202060800000FFFF10C1
:103180001010107C00000000101F1F1010101010F5
:103190001018060020E0E020202020206060800041
:1031A00000FFFF101010107C00000100101F1F1006
:1031B0000000000000000000000080C0602020200F
:1031C00040E0000000FCFF0100004040C0C1404062
:1031D0000001070E181010100F0F000020E0E02073
:1031E0000000000020E0E02000FFFF101010101091
:1031F00010FFFF00101F1F1000000000101F1F1005
:103200000000202020E0E02020200000000000003E
:1032100000FFFF000000000000001010101F1F1032
:103220001010000000000000202020E0E0202020FE
:1032300000000000000000FFFF0000000060E080D0
:103240008080C07F3F00000020E0E020000020A040
:103250006020200000FFFF30187CE3C00000000069
:10326000101F1F10000001131F1C181020E0E02089
:10327000000000000000000000FFFF000000000050
:1032800000000000101F1F10101010101018060072
:1032900020E0E0E000000000E0E0E02000FF013F6F
:1032A000FEC0E01E01FFFF00101F1000031F0300FF
:1032B000101F1F1020E0E0C0000000000020E020F0
:1032C00000FF0003071C78E08000FF00101F1000C3
:1032D00000000000030F1F00000080C0602020607D
:1032E000C080000000FEFF010000000000FFFE00A3
:1032F0000001070E181010180C07010020E0E02054
:103300002020202060C0800000FFFF2020202020FF
:10331000301F0F00101F1F100000000000000000F1
:10332000000080C060202060C080000000FEFF011F
:103330000000000000FFFE000001070E1111133C09
:103340007C67210020E0E0202020202060C0800059
:1033500000FFFF101030F0D0080F0700101F1F10E3
:10336000000000030F1C10100080C06020202020EF
:103370004040E00000070F0C1818303060E081007A
:10338000001F0C0810101010180F0700806020207C
:1033900020E0E020202060800100000000FFFF000E
:1033A0000000000100000000101F1F1000000000BE
:1033B00020E0E020000000000020E02000FFFF00EF
:1033C000000000000000FF0000070F181010101090
:1033D000100807002060E0E02000000020E06020EE
:1033E0000000077FF88000807C03000000000000E0
:1033F000071F1C070000000020E0E02000E0E020A4
:103400000020E0200007FFF8E01FFFFCE01F0000A5
:103410000000031F0300011F03000000002060E004
:10342000A0000020E0602000000000038F7CF8C6B0
:10343000010000000010181E130001171F181000D3
:103440002060E0E02000000020E060200000010794
:103450003EF8E0180700000000000010101F1F10C9
:103460001000000000806020202020A0E0E020006C
:1034700000000000C0F03E0F0300000000101C1F01
:1034800017101010101806000000000000FC0404C3
:10349000040404000000000000FF00000000000021
:1034A00000000000007F404040404000000010E06D
:1034B000000000000000000000000000031C60800D
:1034C0000000000000000000000000030C708000FD
:1034D00000000404040404FC0000000000000000DC
:1034E000000000FF00000000000040404040407F1E
:1034F0000000000000000010080C040C0810000080
:1035000000000000000000000000000000000000BB
:1035100000000000000000000000000000000000AB
:10352000000000000000000000000000000000009B
:103530008080808080808080808080800000000487
:103540000408080000000000000000000000000067
:10355000000000000000000000000000000000006B
:10356000000000000000000000000000000098D8EB
:1035700044642424FCF80000000F1F1810101008E9
:103580001F1F10180020E0F00000000000000000E5
:103590000000FFFF180804040CF8F00000001F0FE3
:1035A00018101010180F03000000000000000000A9
:1035B0000000000000E0F8180404043C380000009B
:1035C00000030F0C1010101008060000000000008F
:1035D00000000020E0F0000000E0F81C04040408F3
:1035E000FFFF000000030F18101010081F0F080045
:1035F0000000000000000000000000000000E0F8F3
:10360000484444444C7870000000030F0C1810101C
:10361000100804000000000080C0602020E0C0000E
:1036200000040404FFFF0404040400000000101060
:103630001F1F10101000000000000000000000001C
:1036400000000000000070F88C04048CF874040C76
:10365000007076CF8D8D8D89C87870000020E0F0E5
:1036600000000000000000000000FFFF0804040448
:10367000FCF8000000101F1F100000101F1F10009A
:103680000000000000606000000000000000040472
:1036900004FCFC000000000000001010101F1F10B0
:1036A000101000000000000000000060600000003A
:1036B00000000000040404FCFC0000000000C0C086
:1036C0008080C07F3F0000000020E0F0000000008C
:1036D000000000000000FFFF80C0F41C0404000094
:1036E00000101F1F1100031F1C10100000002020DD
:1036F00020E0F000000000000000000000FFFF00DC
:103700000000000000001010101F1F10101000001B
:1037100000000000000000000000000004FCFC08A5
:1037200004FCFC0804FCFC00101F1F10001F1F10ED
:10373000001F1F100000000000000000000000003B
:103740000004FCFC08080404FCF8000000101F1F23
:10375000100000101F1F10000000000000000000FB
:103760000000000000E0F0180C04040C18F0E00069
:1037700000030F0C101010100C0F030000000000CD
:1037800000000000000000000004FCFC0804040429
:103790000CF8F0000080FFFF889010101C0F030051
:1037A00000000000000000000000000000E0F81C25
:1037B00004040408F8FC000000030F18101090889F
:1037C000FFFF80000000000000000000000000007B
:1037D000040404FCFC100804040C0C001010101F5E
:1037E0001F1010100000000000000000000000008A
:1037F0000000000000003078CCC48484840C1C00DD
:1038000000001E1810101011190F06000000000013
:1038100000C000000000000000040404FFFF0404D6
:1038200004000000000000000F1F1010100C00002A
:103830000000000000000000000000000004FCFE8A
:1038400000000004FCFE000000000F1F181010080C
:103850001F0F080000000000000000000000000032
:1038600000040C3CFCC40000C43C0C04000000003C
:10387000010F1E0E0100000000000000000000000B
:1038800000000000043CFCC400E47CFC84807C0458
:103890000000071F070000071F07000000000000CE
:1038A00000000000000000000004041C7CE4C034A0
:1038B0001C0404000010101C1601131F1C1810001B
:1038C00000000000000000000000000000040C3CAC
:1038D000FCC400C43C0404000000C080C1370E01D9
:1038E00000000000000000000000000000000000D8
:1038F00000001C0404C4F47C1C0400000000101C24
:103900001F17111010180E0000000000000000F832
:103910000C04000000000000001028EF0000000070
:10392000000000000000003F6040000000000000B8
:103930000000FF0000000000000000000000FF0089
:1039400000000000000000000000FF000000000078
:103950000000040CF800000000000000000000005F
:10396000EF28100000000000000040603F00000051
:103970000000000000180602020408102020300891
:103980000000000000000000000000000000000037
:0839900000000000000000002F
:043998000902000818
:04399C00E501000839
:0439A0000024F4000B
:040000050800127964
:00000001FF
